{
  "_format": "hh-sol-artifact-1",
  "contractName": "Complaint",
  "sourceName": "contracts/FIR.sol",
  "abi": [
    {
      "inputs": [
        {
          "internalType": "address",
          "name": "_officer",
          "type": "address"
        }
      ],
      "stateMutability": "nonpayable",
      "type": "constructor"
    },
    {
      "anonymous": false,
      "inputs": [
        {
          "indexed": false,
          "internalType": "uint256",
          "name": "id",
          "type": "uint256"
        },
        {
          "indexed": false,
          "internalType": "address",
          "name": "complaintRegisteredBy",
          "type": "address"
        },
        {
          "indexed": false,
          "internalType": "string",
          "name": "title",
          "type": "string"
        }
      ],
      "name": "complaintFiled",
      "type": "event"
    },
    {
      "inputs": [
        {
          "internalType": "uint256",
          "name": "",
          "type": "uint256"
        }
      ],
      "name": "Complaints",
      "outputs": [
        {
          "internalType": "uint256",
          "name": "id",
          "type": "uint256"
        },
        {
          "internalType": "address",
          "name": "complaintRegisteredBy",
          "type": "address"
        },
        {
          "internalType": "string",
          "name": "title",
          "type": "string"
        },
        {
          "internalType": "string",
          "name": "description",
          "type": "string"
        },
        {
          "internalType": "string",
          "name": "approvalRemark",
          "type": "string"
        },
        {
          "internalType": "string",
          "name": "resolutionRemark",
          "type": "string"
        },
        {
          "internalType": "bool",
          "name": "isApproved",
          "type": "bool"
        },
        {
          "internalType": "bool",
          "name": "isResolved",
          "type": "bool"
        },
        {
          "internalType": "bool",
          "name": "exists",
          "type": "bool"
        },
        {
          "internalType": "uint256",
          "name": "timestamp",
          "type": "uint256"
        }
      ],
      "stateMutability": "view",
      "type": "function"
    },
    {
      "inputs": [
        {
          "internalType": "uint256",
          "name": "_id",
          "type": "uint256"
        },
        {
          "internalType": "string",
          "name": "_approvalRemark",
          "type": "string"
        }
      ],
      "name": "approveComplaint",
      "outputs": [],
      "stateMutability": "nonpayable",
      "type": "function"
    },
    {
      "inputs": [
        {
          "internalType": "uint256",
          "name": "_id",
          "type": "uint256"
        },
        {
          "internalType": "string",
          "name": "_approvalRemark",
          "type": "string"
        }
      ],
      "name": "discardComplaint",
      "outputs": [],
      "stateMutability": "nonpayable",
      "type": "function"
    },
    {
      "inputs": [
        {
          "internalType": "string",
          "name": "_title",
          "type": "string"
        },
        {
          "internalType": "string",
          "name": "_description",
          "type": "string"
        }
      ],
      "name": "fileComplaint",
      "outputs": [],
      "stateMutability": "nonpayable",
      "type": "function"
    },
    {
      "inputs": [],
      "name": "getAllNotResolvedComplaint",
      "outputs": [
        {
          "components": [
            {
              "internalType": "uint256",
              "name": "id",
              "type": "uint256"
            },
            {
              "internalType": "address",
              "name": "complaintRegisteredBy",
              "type": "address"
            },
            {
              "internalType": "string",
              "name": "title",
              "type": "string"
            },
            {
              "internalType": "string",
              "name": "description",
              "type": "string"
            },
            {
              "internalType": "string",
              "name": "approvalRemark",
              "type": "string"
            },
            {
              "internalType": "string",
              "name": "resolutionRemark",
              "type": "string"
            },
            {
              "internalType": "bool",
              "name": "isApproved",
              "type": "bool"
            },
            {
              "internalType": "bool",
              "name": "isResolved",
              "type": "bool"
            },
            {
              "internalType": "bool",
              "name": "exists",
              "type": "bool"
            },
            {
              "internalType": "uint256",
              "name": "timestamp",
              "type": "uint256"
            }
          ],
          "internalType": "struct Complaint.complaint[]",
          "name": "",
          "type": "tuple[]"
        }
      ],
      "stateMutability": "view",
      "type": "function"
    },
    {
      "inputs": [],
      "name": "getAllPendingApprovals",
      "outputs": [
        {
          "components": [
            {
              "internalType": "uint256",
              "name": "id",
              "type": "uint256"
            },
            {
              "internalType": "address",
              "name": "complaintRegisteredBy",
              "type": "address"
            },
            {
              "internalType": "string",
              "name": "title",
              "type": "string"
            },
            {
              "internalType": "string",
              "name": "description",
              "type": "string"
            },
            {
              "internalType": "string",
              "name": "approvalRemark",
              "type": "string"
            },
            {
              "internalType": "string",
              "name": "resolutionRemark",
              "type": "string"
            },
            {
              "internalType": "bool",
              "name": "isApproved",
              "type": "bool"
            },
            {
              "internalType": "bool",
              "name": "isResolved",
              "type": "bool"
            },
            {
              "internalType": "bool",
              "name": "exists",
              "type": "bool"
            },
            {
              "internalType": "uint256",
              "name": "timestamp",
              "type": "uint256"
            }
          ],
          "internalType": "struct Complaint.complaint[]",
          "name": "",
          "type": "tuple[]"
        }
      ],
      "stateMutability": "view",
      "type": "function"
    },
    {
      "inputs": [],
      "name": "getDiscardedComplaints",
      "outputs": [
        {
          "components": [
            {
              "internalType": "uint256",
              "name": "id",
              "type": "uint256"
            },
            {
              "internalType": "address",
              "name": "complaintRegisteredBy",
              "type": "address"
            },
            {
              "internalType": "string",
              "name": "title",
              "type": "string"
            },
            {
              "internalType": "string",
              "name": "description",
              "type": "string"
            },
            {
              "internalType": "string",
              "name": "approvalRemark",
              "type": "string"
            },
            {
              "internalType": "string",
              "name": "resolutionRemark",
              "type": "string"
            },
            {
              "internalType": "bool",
              "name": "isApproved",
              "type": "bool"
            },
            {
              "internalType": "bool",
              "name": "isResolved",
              "type": "bool"
            },
            {
              "internalType": "bool",
              "name": "exists",
              "type": "bool"
            },
            {
              "internalType": "uint256",
              "name": "timestamp",
              "type": "uint256"
            }
          ],
          "internalType": "struct Complaint.complaint[]",
          "name": "",
          "type": "tuple[]"
        }
      ],
      "stateMutability": "view",
      "type": "function"
    },
    {
      "inputs": [
        {
          "internalType": "uint256",
          "name": "id",
          "type": "uint256"
        }
      ],
      "name": "getMonth",
      "outputs": [
        {
          "internalType": "uint256",
          "name": "",
          "type": "uint256"
        }
      ],
      "stateMutability": "view",
      "type": "function"
    },
    {
      "inputs": [],
      "name": "getSolvedComplaints",
      "outputs": [
        {
          "components": [
            {
              "internalType": "uint256",
              "name": "id",
              "type": "uint256"
            },
            {
              "internalType": "address",
              "name": "complaintRegisteredBy",
              "type": "address"
            },
            {
              "internalType": "string",
              "name": "title",
              "type": "string"
            },
            {
              "internalType": "string",
              "name": "description",
              "type": "string"
            },
            {
              "internalType": "string",
              "name": "approvalRemark",
              "type": "string"
            },
            {
              "internalType": "string",
              "name": "resolutionRemark",
              "type": "string"
            },
            {
              "internalType": "bool",
              "name": "isApproved",
              "type": "bool"
            },
            {
              "internalType": "bool",
              "name": "isResolved",
              "type": "bool"
            },
            {
              "internalType": "bool",
              "name": "exists",
              "type": "bool"
            },
            {
              "internalType": "uint256",
              "name": "timestamp",
              "type": "uint256"
            }
          ],
          "internalType": "struct Complaint.complaint[]",
          "name": "",
          "type": "tuple[]"
        }
      ],
      "stateMutability": "view",
      "type": "function"
    },
    {
      "inputs": [],
      "name": "nextId",
      "outputs": [
        {
          "internalType": "uint256",
          "name": "",
          "type": "uint256"
        }
      ],
      "stateMutability": "view",
      "type": "function"
    },
    {
      "inputs": [],
      "name": "noApprovedComplaint",
      "outputs": [
        {
          "internalType": "uint256",
          "name": "",
          "type": "uint256"
        }
      ],
      "stateMutability": "view",
      "type": "function"
    },
    {
      "inputs": [],
      "name": "noDiscardComplaint",
      "outputs": [
        {
          "internalType": "uint256",
          "name": "",
          "type": "uint256"
        }
      ],
      "stateMutability": "view",
      "type": "function"
    },
    {
      "inputs": [],
      "name": "noSolvedComplaint",
      "outputs": [
        {
          "internalType": "uint256",
          "name": "",
          "type": "uint256"
        }
      ],
      "stateMutability": "view",
      "type": "function"
    },
    {
      "inputs": [],
      "name": "officer",
      "outputs": [
        {
          "internalType": "address",
          "name": "",
          "type": "address"
        }
      ],
      "stateMutability": "view",
      "type": "function"
    },
    {
      "inputs": [],
      "name": "owner",
      "outputs": [
        {
          "internalType": "address",
          "name": "",
          "type": "address"
        }
      ],
      "stateMutability": "view",
      "type": "function"
    },
    {
      "inputs": [
        {
          "internalType": "uint256",
          "name": "_id",
          "type": "uint256"
        },
        {
          "internalType": "string",
          "name": "_resolutionRemark",
          "type": "string"
        }
      ],
      "name": "resolveComplaint",
      "outputs": [],
      "stateMutability": "nonpayable",
      "type": "function"
    },
    {
      "inputs": [
        {
          "internalType": "address",
          "name": "_officer",
          "type": "address"
        }
      ],
      "name": "setOfficerAddress",
      "outputs": [],
      "stateMutability": "nonpayable",
      "type": "function"
    }
  ],
  "bytecode": "0x60806040523480156200001157600080fd5b5060405162003baf38038062003baf833981810160405281019062000037919062000149565b33600160006101000a81548173ffffffffffffffffffffffffffffffffffffffff021916908373ffffffffffffffffffffffffffffffffffffffff160217905550806000806101000a81548173ffffffffffffffffffffffffffffffffffffffff021916908373ffffffffffffffffffffffffffffffffffffffff1602179055506001600281905550600060038190555060006004819055506000600581905550506200017b565b600080fd5b600073ffffffffffffffffffffffffffffffffffffffff82169050919050565b60006200011182620000e4565b9050919050565b620001238162000104565b81146200012f57600080fd5b50565b600081519050620001438162000118565b92915050565b600060208284031215620001625762000161620000df565b5b6000620001728482850162000132565b91505092915050565b613a24806200018b6000396000f3fe608060405234801561001057600080fd5b506004361061010b5760003560e01c8063978c54f8116100a2578063a405fee411610071578063a405fee41461029f578063b09cc427146102bd578063bc685ce0146102d9578063d2032042146102f7578063dbccccbd146103135761010b565b8063978c54f8146101fa578063990c0e62146102185780639f2b37b014610236578063a324ad241461026f5761010b565b8063546d0128116100de578063546d01281461018457806361b8ce8c146101a25780636d1727e9146101c05780638da5cb5b146101dc5761010b565b806314c7fca21461011057806326019e7f1461012e578063325149691461014a5780633c5f15e714610168575b600080fd5b610118610331565b6040516101259190612b96565b60405180910390f35b61014860048036038101906101439190612d37565b610337565b005b6101526109cc565b60405161015f919061302e565b60405180910390f35b610182600480360381019061017d919061307c565b610d2f565b005b61018c610e02565b604051610199919061302e565b60405180910390f35b6101aa611165565b6040516101b79190612b96565b60405180910390f35b6101da60048036038101906101d591906130a9565b61116b565b005b6101e4611646565b6040516101f19190613130565b60405180910390f35b61020261166c565b60405161020f919061302e565b60405180910390f35b6102206119cf565b60405161022d9190612b96565b60405180910390f35b610250600480360381019061024b919061314b565b6119d5565b6040516102669a999897969594939291906131d1565b60405180910390f35b6102896004803603810190610284919061314b565b611c90565b6040516102969190612b96565b60405180910390f35b6102a7611cb0565b6040516102b49190612b96565b60405180910390f35b6102d760048036038101906102d29190612d37565b611cb6565b005b6102e16122ad565b6040516102ee9190613130565b60405180910390f35b610311600480360381019061030c9190612d37565b6122d1565b005b61031b6126cf565b604051610328919061302e565b60405180910390f35b60055481565b60008054906101000a900473ffffffffffffffffffffffffffffffffffffffff1673ffffffffffffffffffffffffffffffffffffffff163373ffffffffffffffffffffffffffffffffffffffff16146103c5576040517f08c379a00000000000000000000000000000000000000000000000000000000081526004016103bc906132fb565b60405180910390fd5b600115156006600084815260200190815260200160002060060160029054906101000a900460ff1615151461042f576040517f08c379a000000000000000000000000000000000000000000000000000000000815260040161042690613367565b60405180910390fd5b600115156006600084815260200190815260200160002060060160009054906101000a900460ff16151514610499576040517f08c379a0000000000000000000000000000000000000000000000000000000008152600401610490906133d3565b60405180910390fd5b600015156006600084815260200190815260200160002060060160019054906101000a900460ff16151514610503576040517f08c379a00000000000000000000000000000000000000000000000000000000081526004016104fa9061343f565b60405180910390fd5b60016006600084815260200190815260200160002060060160016101000a81548160ff021916908315150217905550600860006105409190612a32565b6000600190505b60025481101561075e57600015156006600083815260200190815260200160002060060160019054906101000a900460ff1615151480156105af5750600115156006600083815260200190815260200160002060060160029054906101000a900460ff161515145b1561074b576008600660008381526020019081526020016000209080600181540180825580915050600190039060005260206000209060080201600090919091909150600082015481600001556001820160009054906101000a900473ffffffffffffffffffffffffffffffffffffffff168160010160006101000a81548173ffffffffffffffffffffffffffffffffffffffff021916908373ffffffffffffffffffffffffffffffffffffffff160217905550600282018160020190816106779190613681565b506003820181600301908161068c9190613681565b50600482018160040190816106a19190613681565b50600582018160050190816106b69190613681565b506006820160009054906101000a900460ff168160060160006101000a81548160ff0219169083151502179055506006820160019054906101000a900460ff168160060160016101000a81548160ff0219169083151502179055506006820160029054906101000a900460ff168160060160026101000a81548160ff0219169083151502179055506007820154816007015550505b808061075690613798565b915050610547565b506009600061076d9190612a32565b6000600190505b60025481101561098b57600115156006600083815260200190815260200160002060060160019054906101000a900460ff1615151480156107dc5750600115156006600083815260200190815260200160002060060160029054906101000a900460ff161515145b15610978576009600660008381526020019081526020016000209080600181540180825580915050600190039060005260206000209060080201600090919091909150600082015481600001556001820160009054906101000a900473ffffffffffffffffffffffffffffffffffffffff168160010160006101000a81548173ffffffffffffffffffffffffffffffffffffffff021916908373ffffffffffffffffffffffffffffffffffffffff160217905550600282018160020190816108a49190613681565b50600382018160030190816108b99190613681565b50600482018160040190816108ce9190613681565b50600582018160050190816108e39190613681565b506006820160009054906101000a900460ff168160060160006101000a81548160ff0219169083151502179055506006820160019054906101000a900460ff168160060160016101000a81548160ff0219169083151502179055506006820160029054906101000a900460ff168160060160026101000a81548160ff0219169083151502179055506007820154816007015550505b808061098390613798565b915050610774565b50806006600084815260200190815260200160002060050190816109af91906137e0565b50600460008154809291906109c390613798565b91905055505050565b60606008805480602002602001604051908101604052809291908181526020016000905b82821015610d26578382906000526020600020906008020160405180610140016040529081600082015481526020016001820160009054906101000a900473ffffffffffffffffffffffffffffffffffffffff1673ffffffffffffffffffffffffffffffffffffffff1673ffffffffffffffffffffffffffffffffffffffff168152602001600282018054610a849061348e565b80601f0160208091040260200160405190810160405280929190818152602001828054610ab09061348e565b8015610afd5780601f10610ad257610100808354040283529160200191610afd565b820191906000526020600020905b815481529060010190602001808311610ae057829003601f168201915b50505050508152602001600382018054610b169061348e565b80601f0160208091040260200160405190810160405280929190818152602001828054610b429061348e565b8015610b8f5780601f10610b6457610100808354040283529160200191610b8f565b820191906000526020600020905b815481529060010190602001808311610b7257829003601f168201915b50505050508152602001600482018054610ba89061348e565b80601f0160208091040260200160405190810160405280929190818152602001828054610bd49061348e565b8015610c215780601f10610bf657610100808354040283529160200191610c21565b820191906000526020600020905b815481529060010190602001808311610c0457829003601f168201915b50505050508152602001600582018054610c3a9061348e565b80601f0160208091040260200160405190810160405280929190818152602001828054610c669061348e565b8015610cb35780601f10610c8857610100808354040283529160200191610cb3565b820191906000526020600020905b815481529060010190602001808311610c9657829003601f168201915b505050505081526020016006820160009054906101000a900460ff161515151581526020016006820160019054906101000a900460ff161515151581526020016006820160029054906101000a900460ff16151515158152602001600782015481525050815260200190600101906109f0565b50505050905090565b600160009054906101000a900473ffffffffffffffffffffffffffffffffffffffff1673ffffffffffffffffffffffffffffffffffffffff163373ffffffffffffffffffffffffffffffffffffffff1614610dbf576040517f08c379a0000000000000000000000000000000000000000000000000000000008152600401610db690613924565b60405180910390fd5b806000806101000a81548173ffffffffffffffffffffffffffffffffffffffff021916908373ffffffffffffffffffffffffffffffffffffffff16021790555050565b60606009805480602002602001604051908101604052809291908181526020016000905b8282101561115c578382906000526020600020906008020160405180610140016040529081600082015481526020016001820160009054906101000a900473ffffffffffffffffffffffffffffffffffffffff1673ffffffffffffffffffffffffffffffffffffffff1673ffffffffffffffffffffffffffffffffffffffff168152602001600282018054610eba9061348e565b80601f0160208091040260200160405190810160405280929190818152602001828054610ee69061348e565b8015610f335780601f10610f0857610100808354040283529160200191610f33565b820191906000526020600020905b815481529060010190602001808311610f1657829003601f168201915b50505050508152602001600382018054610f4c9061348e565b80601f0160208091040260200160405190810160405280929190818152602001828054610f789061348e565b8015610fc55780601f10610f9a57610100808354040283529160200191610fc5565b820191906000526020600020905b815481529060010190602001808311610fa857829003601f168201915b50505050508152602001600482018054610fde9061348e565b80601f016020809104026020016040519081016040528092919081815260200182805461100a9061348e565b80156110575780601f1061102c57610100808354040283529160200191611057565b820191906000526020600020905b81548152906001019060200180831161103a57829003601f168201915b505050505081526020016005820180546110709061348e565b80601f016020809104026020016040519081016040528092919081815260200182805461109c9061348e565b80156110e95780601f106110be576101008083540402835291602001916110e9565b820191906000526020600020905b8154815290600101906020018083116110cc57829003601f168201915b505050505081526020016006820160009054906101000a900460ff161515151581526020016006820160019054906101000a900460ff161515151581526020016006820160029054906101000a900460ff1615151515815260200160078201548152505081526020019060010190610e26565b50505050905090565b60025481565b600060066000600254815260200190815260200160002090506002548160000181905550338160010160006101000a81548173ffffffffffffffffffffffffffffffffffffffff021916908373ffffffffffffffffffffffffffffffffffffffff160217905550828160020190816111e391906137e0565b50818160030190816111f591906137e0565b506040518060400160405280601081526020017f50656e64696e6720417070726f76616c0000000000000000000000000000000081525081600401908161123c91906137e0565b506040518060400160405280601281526020017f50656e64696e67205265736f6c7574696f6e000000000000000000000000000081525081600501908161128391906137e0565b5060008160060160006101000a81548160ff02191690831515021790555060008160060160016101000a81548160ff02191690831515021790555060018160060160026101000a81548160ff0219169083151502179055504281600701819055506007819080600181540180825580915050600190039060005260206000209060080201600090919091909150600082015481600001556001820160009054906101000a900473ffffffffffffffffffffffffffffffffffffffff168160010160006101000a81548173ffffffffffffffffffffffffffffffffffffffff021916908373ffffffffffffffffffffffffffffffffffffffff160217905550600282018160020190816113959190613681565b50600382018160030190816113aa9190613681565b50600482018160040190816113bf9190613681565b50600582018160050190816113d49190613681565b506006820160009054906101000a900460ff168160060160006101000a81548160ff0219169083151502179055506006820160019054906101000a900460ff168160060160016101000a81548160ff0219169083151502179055506006820160029054906101000a900460ff168160060160026101000a81548160ff0219169083151502179055506007820154816007015550506008819080600181540180825580915050600190039060005260206000209060080201600090919091909150600082015481600001556001820160009054906101000a900473ffffffffffffffffffffffffffffffffffffffff168160010160006101000a81548173ffffffffffffffffffffffffffffffffffffffff021916908373ffffffffffffffffffffffffffffffffffffffff160217905550600282018160020190816115199190613681565b506003820181600301908161152e9190613681565b50600482018160040190816115439190613681565b50600582018160050190816115589190613681565b506006820160009054906101000a900460ff168160060160006101000a81548160ff0219169083151502179055506006820160019054906101000a900460ff168160060160016101000a81548160ff0219169083151502179055506006820160029054906101000a900460ff168160060160026101000a81548160ff0219169083151502179055506007820154816007015550507fdeb4e2a7c73777ecde924d94281fa19efd33da9ff6f4e0c7ede16fa01fa3051d600254338560405161162193929190613944565b60405180910390a16002600081548092919061163c90613798565b9190505550505050565b600160009054906101000a900473ffffffffffffffffffffffffffffffffffffffff1681565b6060600a805480602002602001604051908101604052809291908181526020016000905b828210156119c6578382906000526020600020906008020160405180610140016040529081600082015481526020016001820160009054906101000a900473ffffffffffffffffffffffffffffffffffffffff1673ffffffffffffffffffffffffffffffffffffffff1673ffffffffffffffffffffffffffffffffffffffff1681526020016002820180546117249061348e565b80601f01602080910402602001604051908101604052809291908181526020018280546117509061348e565b801561179d5780601f106117725761010080835404028352916020019161179d565b820191906000526020600020905b81548152906001019060200180831161178057829003601f168201915b505050505081526020016003820180546117b69061348e565b80601f01602080910402602001604051908101604052809291908181526020018280546117e29061348e565b801561182f5780601f106118045761010080835404028352916020019161182f565b820191906000526020600020905b81548152906001019060200180831161181257829003601f168201915b505050505081526020016004820180546118489061348e565b80601f01602080910402602001604051908101604052809291908181526020018280546118749061348e565b80156118c15780601f10611896576101008083540402835291602001916118c1565b820191906000526020600020905b8154815290600101906020018083116118a457829003601f168201915b505050505081526020016005820180546118da9061348e565b80601f01602080910402602001604051908101604052809291908181526020018280546119069061348e565b80156119535780601f1061192857610100808354040283529160200191611953565b820191906000526020600020905b81548152906001019060200180831161193657829003601f168201915b505050505081526020016006820160009054906101000a900460ff161515151581526020016006820160019054906101000a900460ff161515151581526020016006820160029054906101000a900460ff1615151515815260200160078201548152505081526020019060010190611690565b50505050905090565b60045481565b60066020528060005260406000206000915090508060000154908060010160009054906101000a900473ffffffffffffffffffffffffffffffffffffffff1690806002018054611a249061348e565b80601f0160208091040260200160405190810160405280929190818152602001828054611a509061348e565b8015611a9d5780601f10611a7257610100808354040283529160200191611a9d565b820191906000526020600020905b815481529060010190602001808311611a8057829003601f168201915b505050505090806003018054611ab29061348e565b80601f0160208091040260200160405190810160405280929190818152602001828054611ade9061348e565b8015611b2b5780601f10611b0057610100808354040283529160200191611b2b565b820191906000526020600020905b815481529060010190602001808311611b0e57829003601f168201915b505050505090806004018054611b409061348e565b80601f0160208091040260200160405190810160405280929190818152602001828054611b6c9061348e565b8015611bb95780601f10611b8e57610100808354040283529160200191611bb9565b820191906000526020600020905b815481529060010190602001808311611b9c57829003601f168201915b505050505090806005018054611bce9061348e565b80601f0160208091040260200160405190810160405280929190818152602001828054611bfa9061348e565b8015611c475780601f10611c1c57610100808354040283529160200191611c47565b820191906000526020600020905b815481529060010190602001808311611c2a57829003601f168201915b5050505050908060060160009054906101000a900460ff16908060060160019054906101000a900460ff16908060060160029054906101000a900460ff1690806007015490508a565b600060066000838152602001908152602001600020600701549050919050565b60035481565b60008054906101000a900473ffffffffffffffffffffffffffffffffffffffff1673ffffffffffffffffffffffffffffffffffffffff163373ffffffffffffffffffffffffffffffffffffffff1614611d44576040517f08c379a0000000000000000000000000000000000000000000000000000000008152600401611d3b906132fb565b60405180910390fd5b600115156006600084815260200190815260200160002060060160029054906101000a900460ff16151514611dae576040517f08c379a0000000000000000000000000000000000000000000000000000000008152600401611da590613367565b60405180910390fd5b600015156006600084815260200190815260200160002060060160009054906101000a900460ff16151514611e18576040517f08c379a0000000000000000000000000000000000000000000000000000000008152600401611e0f906139ce565b60405180910390fd5b60006006600084815260200190815260200160002060060160026101000a81548160ff021916908315150217905550600a6000611e559190612a32565b6000600190505b60025481101561203f57600015156006600083815260200190815260200160002060060160029054906101000a900460ff1615150361202c57600a600660008381526020019081526020016000209080600181540180825580915050600190039060005260206000209060080201600090919091909150600082015481600001556001820160009054906101000a900473ffffffffffffffffffffffffffffffffffffffff168160010160006101000a81548173ffffffffffffffffffffffffffffffffffffffff021916908373ffffffffffffffffffffffffffffffffffffffff16021790555060028201816002019081611f589190613681565b5060038201816003019081611f6d9190613681565b5060048201816004019081611f829190613681565b5060058201816005019081611f979190613681565b506006820160009054906101000a900460ff168160060160006101000a81548160ff0219169083151502179055506006820160019054906101000a900460ff168160060160016101000a81548160ff0219169083151502179055506006820160029054906101000a900460ff168160060160026101000a81548160ff0219169083151502179055506007820154816007015550505b808061203790613798565b915050611e5c565b506007600061204e9190612a32565b6000600190505b60025481101561226c57600015156006600083815260200190815260200160002060060160009054906101000a900460ff1615151480156120bd5750600115156006600083815260200190815260200160002060060160029054906101000a900460ff161515145b15612259576007600660008381526020019081526020016000209080600181540180825580915050600190039060005260206000209060080201600090919091909150600082015481600001556001820160009054906101000a900473ffffffffffffffffffffffffffffffffffffffff168160010160006101000a81548173ffffffffffffffffffffffffffffffffffffffff021916908373ffffffffffffffffffffffffffffffffffffffff160217905550600282018160020190816121859190613681565b506003820181600301908161219a9190613681565b50600482018160040190816121af9190613681565b50600582018160050190816121c49190613681565b506006820160009054906101000a900460ff168160060160006101000a81548160ff0219169083151502179055506006820160019054906101000a900460ff168160060160016101000a81548160ff0219169083151502179055506006820160029054906101000a900460ff168160060160026101000a81548160ff0219169083151502179055506007820154816007015550505b808061226490613798565b915050612055565b508060066000848152602001908152602001600020600401908161229091906137e0565b50600560008154809291906122a490613798565b91905055505050565b60008054906101000a900473ffffffffffffffffffffffffffffffffffffffff1681565b60008054906101000a900473ffffffffffffffffffffffffffffffffffffffff1673ffffffffffffffffffffffffffffffffffffffff163373ffffffffffffffffffffffffffffffffffffffff161461235f576040517f08c379a0000000000000000000000000000000000000000000000000000000008152600401612356906132fb565b60405180910390fd5b600115156006600084815260200190815260200160002060060160029054906101000a900460ff161515146123c9576040517f08c379a00000000000000000000000000000000000000000000000000000000081526004016123c090613367565b60405180910390fd5b600015156006600084815260200190815260200160002060060160009054906101000a900460ff16151514612433576040517f08c379a000000000000000000000000000000000000000000000000000000000815260040161242a906139ce565b60405180910390fd5b60016006600084815260200190815260200160002060060160006101000a81548160ff021916908315150217905550600760006124709190612a32565b6000600190505b60025481101561268e57600015156006600083815260200190815260200160002060060160009054906101000a900460ff1615151480156124df5750600115156006600083815260200190815260200160002060060160029054906101000a900460ff161515145b1561267b576007600660008381526020019081526020016000209080600181540180825580915050600190039060005260206000209060080201600090919091909150600082015481600001556001820160009054906101000a900473ffffffffffffffffffffffffffffffffffffffff168160010160006101000a81548173ffffffffffffffffffffffffffffffffffffffff021916908373ffffffffffffffffffffffffffffffffffffffff160217905550600282018160020190816125a79190613681565b50600382018160030190816125bc9190613681565b50600482018160040190816125d19190613681565b50600582018160050190816125e69190613681565b506006820160009054906101000a900460ff168160060160006101000a81548160ff0219169083151502179055506006820160019054906101000a900460ff168160060160016101000a81548160ff0219169083151502179055506006820160029054906101000a900460ff168160060160026101000a81548160ff0219169083151502179055506007820154816007015550505b808061268690613798565b915050612477565b50806006600084815260200190815260200160002060040190816126b291906137e0565b50600360008154809291906126c690613798565b91905055505050565b60606007805480602002602001604051908101604052809291908181526020016000905b82821015612a29578382906000526020600020906008020160405180610140016040529081600082015481526020016001820160009054906101000a900473ffffffffffffffffffffffffffffffffffffffff1673ffffffffffffffffffffffffffffffffffffffff1673ffffffffffffffffffffffffffffffffffffffff1681526020016002820180546127879061348e565b80601f01602080910402602001604051908101604052809291908181526020018280546127b39061348e565b80156128005780601f106127d557610100808354040283529160200191612800565b820191906000526020600020905b8154815290600101906020018083116127e357829003601f168201915b505050505081526020016003820180546128199061348e565b80601f01602080910402602001604051908101604052809291908181526020018280546128459061348e565b80156128925780601f1061286757610100808354040283529160200191612892565b820191906000526020600020905b81548152906001019060200180831161287557829003601f168201915b505050505081526020016004820180546128ab9061348e565b80601f01602080910402602001604051908101604052809291908181526020018280546128d79061348e565b80156129245780601f106128f957610100808354040283529160200191612924565b820191906000526020600020905b81548152906001019060200180831161290757829003601f168201915b5050505050815260200160058201805461293d9061348e565b80601f01602080910402602001604051908101604052809291908181526020018280546129699061348e565b80156129b65780601f1061298b576101008083540402835291602001916129b6565b820191906000526020600020905b81548152906001019060200180831161299957829003601f168201915b505050505081526020016006820160009054906101000a900460ff161515151581526020016006820160019054906101000a900460ff161515151581526020016006820160029054906101000a900460ff16151515158152602001600782015481525050815260200190600101906126f3565b50505050905090565b5080546000825560080290600052602060002090810190612a539190612a56565b50565b5b80821115612b1c576000808201600090556001820160006101000a81549073ffffffffffffffffffffffffffffffffffffffff0219169055600282016000612a9f9190612b20565b600382016000612aaf9190612b20565b600482016000612abf9190612b20565b600582016000612acf9190612b20565b6006820160006101000a81549060ff02191690556006820160016101000a81549060ff02191690556006820160026101000a81549060ff0219169055600782016000905550600801612a57565b5090565b508054612b2c9061348e565b6000825580601f10612b3e5750612b5d565b601f016020900490600052602060002090810190612b5c9190612b60565b5b50565b5b80821115612b79576000816000905550600101612b61565b5090565b6000819050919050565b612b9081612b7d565b82525050565b6000602082019050612bab6000830184612b87565b92915050565b6000604051905090565b600080fd5b600080fd5b612bce81612b7d565b8114612bd957600080fd5b50565b600081359050612beb81612bc5565b92915050565b600080fd5b600080fd5b6000601f19601f8301169050919050565b7f4e487b7100000000000000000000000000000000000000000000000000000000600052604160045260246000fd5b612c4482612bfb565b810181811067ffffffffffffffff82111715612c6357612c62612c0c565b5b80604052505050565b6000612c76612bb1565b9050612c828282612c3b565b919050565b600067ffffffffffffffff821115612ca257612ca1612c0c565b5b612cab82612bfb565b9050602081019050919050565b82818337600083830152505050565b6000612cda612cd584612c87565b612c6c565b905082815260208101848484011115612cf657612cf5612bf6565b5b612d01848285612cb8565b509392505050565b600082601f830112612d1e57612d1d612bf1565b5b8135612d2e848260208601612cc7565b91505092915050565b60008060408385031215612d4e57612d4d612bbb565b5b6000612d5c85828601612bdc565b925050602083013567ffffffffffffffff811115612d7d57612d7c612bc0565b5b612d8985828601612d09565b9150509250929050565b600081519050919050565b600082825260208201905092915050565b6000819050602082019050919050565b612dc881612b7d565b82525050565b600073ffffffffffffffffffffffffffffffffffffffff82169050919050565b6000612df982612dce565b9050919050565b612e0981612dee565b82525050565b600081519050919050565b600082825260208201905092915050565b60005b83811015612e49578082015181840152602081019050612e2e565b60008484015250505050565b6000612e6082612e0f565b612e6a8185612e1a565b9350612e7a818560208601612e2b565b612e8381612bfb565b840191505092915050565b60008115159050919050565b612ea381612e8e565b82525050565b600061014083016000830151612ec26000860182612dbf565b506020830151612ed56020860182612e00565b5060408301518482036040860152612eed8282612e55565b91505060608301518482036060860152612f078282612e55565b91505060808301518482036080860152612f218282612e55565b91505060a083015184820360a0860152612f3b8282612e55565b91505060c0830151612f5060c0860182612e9a565b5060e0830151612f6360e0860182612e9a565b50610100830151612f78610100860182612e9a565b50610120830151612f8d610120860182612dbf565b508091505092915050565b6000612fa48383612ea9565b905092915050565b6000602082019050919050565b6000612fc482612d93565b612fce8185612d9e565b935083602082028501612fe085612daf565b8060005b8581101561301c5784840389528151612ffd8582612f98565b945061300883612fac565b925060208a01995050600181019050612fe4565b50829750879550505050505092915050565b600060208201905081810360008301526130488184612fb9565b905092915050565b61305981612dee565b811461306457600080fd5b50565b60008135905061307681613050565b92915050565b60006020828403121561309257613091612bbb565b5b60006130a084828501613067565b91505092915050565b600080604083850312156130c0576130bf612bbb565b5b600083013567ffffffffffffffff8111156130de576130dd612bc0565b5b6130ea85828601612d09565b925050602083013567ffffffffffffffff81111561310b5761310a612bc0565b5b61311785828601612d09565b9150509250929050565b61312a81612dee565b82525050565b60006020820190506131456000830184613121565b92915050565b60006020828403121561316157613160612bbb565b5b600061316f84828501612bdc565b91505092915050565b600082825260208201905092915050565b600061319482612e0f565b61319e8185613178565b93506131ae818560208601612e2b565b6131b781612bfb565b840191505092915050565b6131cb81612e8e565b82525050565b6000610140820190506131e7600083018d612b87565b6131f4602083018c613121565b8181036040830152613206818b613189565b9050818103606083015261321a818a613189565b9050818103608083015261322e8189613189565b905081810360a08301526132428188613189565b905061325160c08301876131c2565b61325e60e08301866131c2565b61326c6101008301856131c2565b61327a610120830184612b87565b9b9a5050505050505050505050565b7f596f7520617265206e6f742072656769737465726564206f666669636572206f60008201527f66207468697320736d61727420636f6e74726163740000000000000000000000602082015250565b60006132e5603583613178565b91506132f082613289565b604082019050919050565b60006020820190508181036000830152613314816132d8565b9050919050565b7f5468697320636f6d706c61696e7420696420646f6573206e6f74206578697374600082015250565b6000613351602083613178565b915061335c8261331b565b602082019050919050565b6000602082019050818103600083015261338081613344565b9050919050565b7f436f6d706c61696e74206973206e6f742079657420617070726f766564000000600082015250565b60006133bd601d83613178565b91506133c882613387565b602082019050919050565b600060208201905081810360008301526133ec816133b0565b9050919050565b7f436f6d706c61696e7420697320616c7265616479207265736f6c766564000000600082015250565b6000613429601d83613178565b9150613434826133f3565b602082019050919050565b600060208201905081810360008301526134588161341c565b9050919050565b7f4e487b7100000000000000000000000000000000000000000000000000000000600052602260045260246000fd5b600060028204905060018216806134a657607f821691505b6020821081036134b9576134b861345f565b5b50919050565b6000815490506134ce8161348e565b9050919050565b60008190508160005260206000209050919050565b60006020601f8301049050919050565b600082821b905092915050565b6000600883026135377fffffffffffffffffffffffffffffffffffffffffffffffffffffffffffffffff826134fa565b61354186836134fa565b95508019841693508086168417925050509392505050565b6000819050919050565b600061357e61357961357484612b7d565b613559565b612b7d565b9050919050565b6000819050919050565b61359883613563565b6135ac6135a482613585565b848454613507565b825550505050565b600090565b6135c16135b4565b6135cc81848461358f565b505050565b5b818110156135f0576135e56000826135b9565b6001810190506135d2565b5050565b601f82111561363557613606816134d5565b61360f846134ea565b8101602085101561361e578190505b61363261362a856134ea565b8301826135d1565b50505b505050565b600082821c905092915050565b60006136586000198460080261363a565b1980831691505092915050565b60006136718383613647565b9150826002028217905092915050565b81810361368f575050613767565b613698826134bf565b67ffffffffffffffff8111156136b1576136b0612c0c565b5b6136bb825461348e565b6136c68282856135f4565b6000601f8311600181146136f557600084156136e3578287015490505b6136ed8582613665565b865550613760565b601f198416613703876134d5565b965061370e866134d5565b60005b8281101561373657848901548255600182019150600185019450602081019050613711565b86831015613753578489015461374f601f891682613647565b8355505b6001600288020188555050505b5050505050505b565b7f4e487b7100000000000000000000000000000000000000000000000000000000600052601160045260246000fd5b60006137a382612b7d565b91507fffffffffffffffffffffffffffffffffffffffffffffffffffffffffffffffff82036137d5576137d4613769565b5b600182019050919050565b6137e982612e0f565b67ffffffffffffffff81111561380257613801612c0c565b5b61380c825461348e565b6138178282856135f4565b600060209050601f83116001811461384a5760008415613838578287015190505b6138428582613665565b8655506138aa565b601f198416613858866134d5565b60005b828110156138805784890151825560018201915060208501945060208101905061385b565b8683101561389d5784890151613899601f891682613647565b8355505b6001600288020188555050505b505050505050565b7f596f7520617265206e6f7420746865206f776e6572206f66207468697320736d60008201527f61727420636f6e74726163740000000000000000000000000000000000000000602082015250565b600061390e602c83613178565b9150613919826138b2565b604082019050919050565b6000602082019050818103600083015261393d81613901565b9050919050565b60006060820190506139596000830186612b87565b6139666020830185613121565b81810360408301526139788184613189565b9050949350505050565b7f436f6d706c61696e7420697320616c726561647920617070726f766564000000600082015250565b60006139b8601d83613178565b91506139c382613982565b602082019050919050565b600060208201905081810360008301526139e7816139ab565b905091905056fea2646970667358221220824913902dfb287cd68d562535120455eab6f04d4041fedb037d6cb92210158864736f6c63430008110033",
  "linkReferences": {},
  "deployedLinkReferences": {}
}